{
    "abi": [
        {
            "type": "constructor",
            "inputs": [
                {
                    "name": "_params",
                    "type": "tuple",
                    "internalType": "struct CreatorTimeMarket.ConstructorParams",
                    "components": [
                        {
                            "name": "name",
                            "type": "string",
                            "internalType": "string"
                        },
                        {
                            "name": "symbol",
                            "type": "string",
                            "internalType": "string"
                        },
                        {
                            "name": "creator",
                            "type": "address",
                            "internalType": "address"
                        },
                        {
                            "name": "platformFee",
                            "type": "uint256",
                            "internalType": "uint256"
                        },
                        {
                            "name": "totalSupply",
                            "type": "uint256",
                            "internalType": "uint256"
                        },
                        {
                            "name": "ethReserve",
                            "type": "uint256",
                            "internalType": "uint256"
                        },
                        {
                            "name": "mcLowerLimit",
                            "type": "uint256",
                            "internalType": "uint256"
                        },
                        {
                            "name": "mcHigherLimit",
                            "type": "uint256",
                            "internalType": "uint256"
                        },
                        {
                            "name": "tokensMigrationThreshold",
                            "type": "uint256",
                            "internalType": "uint256"
                        },
                        {
                            "name": "migrationFee",
                            "type": "uint256",
                            "internalType": "uint256"
                        },
                        {
                            "name": "poolCreationFee",
                            "type": "uint256",
                            "internalType": "uint256"
                        },
                        {
                            "name": "uniswapRouter",
                            "type": "address",
                            "internalType": "address"
                        }
                    ]
                }
            ],
            "stateMutability": "nonpayable"
        },
        {
            "type": "function",
            "name": "MAX_BPS",
            "inputs": [],
            "outputs": [
                {
                    "name": "",
                    "type": "uint256",
                    "internalType": "uint256"
                }
            ],
            "stateMutability": "view"
        },
        {
            "type": "function",
            "name": "allowance",
            "inputs": [
                {
                    "name": "owner",
                    "type": "address",
                    "internalType": "address"
                },
                {
                    "name": "spender",
                    "type": "address",
                    "internalType": "address"
                }
            ],
            "outputs": [
                {
                    "name": "",
                    "type": "uint256",
                    "internalType": "uint256"
                }
            ],
            "stateMutability": "view"
        },
        {
            "type": "function",
            "name": "approve",
            "inputs": [
                {
                    "name": "spender",
                    "type": "address",
                    "internalType": "address"
                },
                {
                    "name": "value",
                    "type": "uint256",
                    "internalType": "uint256"
                }
            ],
            "outputs": [
                {
                    "name": "",
                    "type": "bool",
                    "internalType": "bool"
                }
            ],
            "stateMutability": "nonpayable"
        },
        {
            "type": "function",
            "name": "balanceOf",
            "inputs": [
                {
                    "name": "account",
                    "type": "address",
                    "internalType": "address"
                }
            ],
            "outputs": [
                {
                    "name": "",
                    "type": "uint256",
                    "internalType": "uint256"
                }
            ],
            "stateMutability": "view"
        },
        {
            "type": "function",
            "name": "burn",
            "inputs": [
                {
                    "name": "value",
                    "type": "uint256",
                    "internalType": "uint256"
                }
            ],
            "outputs": [],
            "stateMutability": "nonpayable"
        },
        {
            "type": "function",
            "name": "burnFrom",
            "inputs": [
                {
                    "name": "account",
                    "type": "address",
                    "internalType": "address"
                },
                {
                    "name": "value",
                    "type": "uint256",
                    "internalType": "uint256"
                }
            ],
            "outputs": [],
            "stateMutability": "nonpayable"
        },
        {
            "type": "function",
            "name": "buy",
            "inputs": [],
            "outputs": [
                {
                    "name": "",
                    "type": "uint256",
                    "internalType": "uint256"
                }
            ],
            "stateMutability": "payable"
        },
        {
            "type": "function",
            "name": "creator",
            "inputs": [],
            "outputs": [
                {
                    "name": "",
                    "type": "address",
                    "internalType": "address"
                }
            ],
            "stateMutability": "view"
        },
        {
            "type": "function",
            "name": "currentMarketcap",
            "inputs": [],
            "outputs": [
                {
                    "name": "",
                    "type": "uint256",
                    "internalType": "uint256"
                }
            ],
            "stateMutability": "view"
        },
        {
            "type": "function",
            "name": "decimals",
            "inputs": [],
            "outputs": [
                {
                    "name": "",
                    "type": "uint8",
                    "internalType": "uint8"
                }
            ],
            "stateMutability": "view"
        },
        {
            "type": "function",
            "name": "factory",
            "inputs": [],
            "outputs": [
                {
                    "name": "",
                    "type": "address",
                    "internalType": "address payable"
                }
            ],
            "stateMutability": "view"
        },
        {
            "type": "function",
            "name": "getCurrentPrice",
            "inputs": [],
            "outputs": [
                {
                    "name": "",
                    "type": "uint256",
                    "internalType": "uint256"
                }
            ],
            "stateMutability": "view"
        },
        {
            "type": "function",
            "name": "getMarketcap",
            "inputs": [],
            "outputs": [
                {
                    "name": "",
                    "type": "uint256",
                    "internalType": "uint256"
                }
            ],
            "stateMutability": "view"
        },
        {
            "type": "function",
            "name": "getProgress",
            "inputs": [],
            "outputs": [
                {
                    "name": "",
                    "type": "uint256",
                    "internalType": "uint256"
                }
            ],
            "stateMutability": "view"
        },
        {
            "type": "function",
            "name": "initialEtherReserve",
            "inputs": [],
            "outputs": [
                {
                    "name": "",
                    "type": "uint256",
                    "internalType": "uint256"
                }
            ],
            "stateMutability": "view"
        },
        {
            "type": "function",
            "name": "initialTokenSupply",
            "inputs": [],
            "outputs": [
                {
                    "name": "",
                    "type": "uint256",
                    "internalType": "uint256"
                }
            ],
            "stateMutability": "view"
        },
        {
            "type": "function",
            "name": "mcHigherLimit",
            "inputs": [],
            "outputs": [
                {
                    "name": "",
                    "type": "uint256",
                    "internalType": "uint256"
                }
            ],
            "stateMutability": "view"
        },
        {
            "type": "function",
            "name": "mcLowerLimit",
            "inputs": [],
            "outputs": [
                {
                    "name": "",
                    "type": "uint256",
                    "internalType": "uint256"
                }
            ],
            "stateMutability": "view"
        },
        {
            "type": "function",
            "name": "migrate",
            "inputs": [],
            "outputs": [],
            "stateMutability": "nonpayable"
        },
        {
            "type": "function",
            "name": "migrationFee",
            "inputs": [],
            "outputs": [
                {
                    "name": "",
                    "type": "uint256",
                    "internalType": "uint256"
                }
            ],
            "stateMutability": "view"
        },
        {
            "type": "function",
            "name": "name",
            "inputs": [],
            "outputs": [
                {
                    "name": "",
                    "type": "string",
                    "internalType": "string"
                }
            ],
            "stateMutability": "view"
        },
        {
            "type": "function",
            "name": "pair",
            "inputs": [],
            "outputs": [
                {
                    "name": "",
                    "type": "address",
                    "internalType": "address"
                }
            ],
            "stateMutability": "view"
        },
        {
            "type": "function",
            "name": "platformFee",
            "inputs": [],
            "outputs": [
                {
                    "name": "",
                    "type": "uint256",
                    "internalType": "uint256"
                }
            ],
            "stateMutability": "view"
        },
        {
            "type": "function",
            "name": "poolCreationFee",
            "inputs": [],
            "outputs": [
                {
                    "name": "",
                    "type": "uint256",
                    "internalType": "uint256"
                }
            ],
            "stateMutability": "view"
        },
        {
            "type": "function",
            "name": "redeem",
            "inputs": [
                {
                    "name": "_minutes",
                    "type": "uint256",
                    "internalType": "uint256"
                },
                {
                    "name": "_details",
                    "type": "string",
                    "internalType": "string"
                }
            ],
            "outputs": [],
            "stateMutability": "nonpayable"
        },
        {
            "type": "function",
            "name": "sell",
            "inputs": [
                {
                    "name": "_amount",
                    "type": "uint256",
                    "internalType": "uint256"
                }
            ],
            "outputs": [
                {
                    "name": "",
                    "type": "uint256",
                    "internalType": "uint256"
                }
            ],
            "stateMutability": "nonpayable"
        },
        {
            "type": "function",
            "name": "sendingToPairNotAllowed",
            "inputs": [],
            "outputs": [
                {
                    "name": "",
                    "type": "bool",
                    "internalType": "bool"
                }
            ],
            "stateMutability": "view"
        },
        {
            "type": "function",
            "name": "symbol",
            "inputs": [],
            "outputs": [
                {
                    "name": "",
                    "type": "string",
                    "internalType": "string"
                }
            ],
            "stateMutability": "view"
        },
        {
            "type": "function",
            "name": "tokenReserves",
            "inputs": [],
            "outputs": [
                {
                    "name": "",
                    "type": "uint256",
                    "internalType": "uint256"
                }
            ],
            "stateMutability": "view"
        },
        {
            "type": "function",
            "name": "tokensMigrationThreshold",
            "inputs": [],
            "outputs": [
                {
                    "name": "",
                    "type": "uint256",
                    "internalType": "uint256"
                }
            ],
            "stateMutability": "view"
        },
        {
            "type": "function",
            "name": "totalSupply",
            "inputs": [],
            "outputs": [
                {
                    "name": "",
                    "type": "uint256",
                    "internalType": "uint256"
                }
            ],
            "stateMutability": "view"
        },
        {
            "type": "function",
            "name": "tradingStopped",
            "inputs": [],
            "outputs": [
                {
                    "name": "",
                    "type": "bool",
                    "internalType": "bool"
                }
            ],
            "stateMutability": "view"
        },
        {
            "type": "function",
            "name": "transfer",
            "inputs": [
                {
                    "name": "to",
                    "type": "address",
                    "internalType": "address"
                },
                {
                    "name": "amount",
                    "type": "uint256",
                    "internalType": "uint256"
                }
            ],
            "outputs": [
                {
                    "name": "",
                    "type": "bool",
                    "internalType": "bool"
                }
            ],
            "stateMutability": "nonpayable"
        },
        {
            "type": "function",
            "name": "transferFrom",
            "inputs": [
                {
                    "name": "from",
                    "type": "address",
                    "internalType": "address"
                },
                {
                    "name": "to",
                    "type": "address",
                    "internalType": "address"
                },
                {
                    "name": "amount",
                    "type": "uint256",
                    "internalType": "uint256"
                }
            ],
            "outputs": [
                {
                    "name": "",
                    "type": "bool",
                    "internalType": "bool"
                }
            ],
            "stateMutability": "nonpayable"
        },
        {
            "type": "function",
            "name": "virtualEthReserves",
            "inputs": [],
            "outputs": [
                {
                    "name": "",
                    "type": "uint256",
                    "internalType": "uint256"
                }
            ],
            "stateMutability": "view"
        },
        {
            "type": "event",
            "name": "Approval",
            "inputs": [
                {
                    "name": "owner",
                    "type": "address",
                    "indexed": true,
                    "internalType": "address"
                },
                {
                    "name": "spender",
                    "type": "address",
                    "indexed": true,
                    "internalType": "address"
                },
                {
                    "name": "value",
                    "type": "uint256",
                    "indexed": false,
                    "internalType": "uint256"
                }
            ],
            "anonymous": false
        },
        {
            "type": "event",
            "name": "RedemptionRequested",
            "inputs": [
                {
                    "name": "user",
                    "type": "address",
                    "indexed": false,
                    "internalType": "address"
                },
                {
                    "name": "minutes_used",
                    "type": "uint256",
                    "indexed": false,
                    "internalType": "uint256"
                },
                {
                    "name": "details",
                    "type": "string",
                    "indexed": false,
                    "internalType": "string"
                }
            ],
            "anonymous": false
        },
        {
            "type": "event",
            "name": "TokenMigrated",
            "inputs": [
                {
                    "name": "creator",
                    "type": "address",
                    "indexed": false,
                    "internalType": "address"
                },
                {
                    "name": "token",
                    "type": "address",
                    "indexed": false,
                    "internalType": "address"
                },
                {
                    "name": "pair",
                    "type": "address",
                    "indexed": false,
                    "internalType": "address"
                }
            ],
            "anonymous": false
        },
        {
            "type": "event",
            "name": "TokensBought",
            "inputs": [
                {
                    "name": "user",
                    "type": "address",
                    "indexed": false,
                    "internalType": "address"
                },
                {
                    "name": "amount",
                    "type": "uint256",
                    "indexed": false,
                    "internalType": "uint256"
                }
            ],
            "anonymous": false
        },
        {
            "type": "event",
            "name": "TokensSold",
            "inputs": [
                {
                    "name": "user",
                    "type": "address",
                    "indexed": false,
                    "internalType": "address"
                },
                {
                    "name": "amount",
                    "type": "uint256",
                    "indexed": false,
                    "internalType": "uint256"
                }
            ],
            "anonymous": false
        },
        {
            "type": "event",
            "name": "Transfer",
            "inputs": [
                {
                    "name": "from",
                    "type": "address",
                    "indexed": true,
                    "internalType": "address"
                },
                {
                    "name": "to",
                    "type": "address",
                    "indexed": true,
                    "internalType": "address"
                },
                {
                    "name": "value",
                    "type": "uint256",
                    "indexed": false,
                    "internalType": "uint256"
                }
            ],
            "anonymous": false
        },
        {
            "type": "error",
            "name": "ERC20InsufficientAllowance",
            "inputs": [
                {
                    "name": "spender",
                    "type": "address",
                    "internalType": "address"
                },
                {
                    "name": "allowance",
                    "type": "uint256",
                    "internalType": "uint256"
                },
                {
                    "name": "needed",
                    "type": "uint256",
                    "internalType": "uint256"
                }
            ]
        },
        {
            "type": "error",
            "name": "ERC20InsufficientBalance",
            "inputs": [
                {
                    "name": "sender",
                    "type": "address",
                    "internalType": "address"
                },
                {
                    "name": "balance",
                    "type": "uint256",
                    "internalType": "uint256"
                },
                {
                    "name": "needed",
                    "type": "uint256",
                    "internalType": "uint256"
                }
            ]
        },
        {
            "type": "error",
            "name": "ERC20InvalidApprover",
            "inputs": [
                {
                    "name": "approver",
                    "type": "address",
                    "internalType": "address"
                }
            ]
        },
        {
            "type": "error",
            "name": "ERC20InvalidReceiver",
            "inputs": [
                {
                    "name": "receiver",
                    "type": "address",
                    "internalType": "address"
                }
            ]
        },
        {
            "type": "error",
            "name": "ERC20InvalidSender",
            "inputs": [
                {
                    "name": "sender",
                    "type": "address",
                    "internalType": "address"
                }
            ]
        },
        {
            "type": "error",
            "name": "ERC20InvalidSpender",
            "inputs": [
                {
                    "name": "spender",
                    "type": "address",
                    "internalType": "address"
                }
            ]
        },
        {
            "type": "error",
            "name": "InsufficientBalance",
            "inputs": []
        },
        {
            "type": "error",
            "name": "MarketcapThresholdReached",
            "inputs": []
        },
        {
            "type": "error",
            "name": "ReentrancyGuardReentrantCall",
            "inputs": []
        },
        {
            "type": "error",
            "name": "SendingToPairNotAllowed",
            "inputs": []
        },
        {
            "type": "error",
            "name": "TradingIsLive",
            "inputs": []
        },
        {
            "type": "error",
            "name": "TradingStopped",
            "inputs": []
        },
        {
            "type": "error",
            "name": "TransferFailed",
            "inputs": []
        },
        {
            "type": "error",
            "name": "ZeroAmount",
            "inputs": []
        }
    ],
    "bytecode": {
        "object": "0x60c060405234801561000f575f80fd5b5060405161331338038061331383398181016040528101906100319190610962565b805f0151816020015181600390816100499190610bad565b5080600490816100599190610bad565b50505060016005819055508060600151600b8190555080608001516009819055506009546006819055508060a001516007819055508060a00151600a819055508060c00151600d819055508060e00151600e81905550806101000151600f8190555080610120015160108190555080610140015160118190555080610160015160125f6101000a81548173ffffffffffffffffffffffffffffffffffffffff021916908373ffffffffffffffffffffffffffffffffffffffff160217905550806040015173ffffffffffffffffffffffffffffffffffffffff1660808173ffffffffffffffffffffffffffffffffffffffff16815250506001601260156101000a81548160ff0219169083151502179055503360085f6101000a81548173ffffffffffffffffffffffffffffffffffffffff021916908373ffffffffffffffffffffffffffffffffffffffff1602179055506101bd3060095461038b60201b60201c565b60125f9054906101000a900473ffffffffffffffffffffffffffffffffffffffff1673ffffffffffffffffffffffffffffffffffffffff1663c45a01556040518163ffffffff1660e01b8152600401602060405180830381865afa158015610227573d5f803e3d5ffd5b505050506040513d601f19601f8201168201806040525081019061024b9190610c7c565b73ffffffffffffffffffffffffffffffffffffffff1663c9c653963060125f9054906101000a900473ffffffffffffffffffffffffffffffffffffffff1673ffffffffffffffffffffffffffffffffffffffff1663ad5c46486040518163ffffffff1660e01b8152600401602060405180830381865afa1580156102d1573d5f803e3d5ffd5b505050506040513d601f19601f820116820180604052508101906102f59190610c7c565b6040518363ffffffff1660e01b8152600401610312929190610cb6565b6020604051808303815f875af115801561032e573d5f803e3d5ffd5b505050506040513d601f19601f820116820180604052508101906103529190610c7c565b73ffffffffffffffffffffffffffffffffffffffff1660a08173ffffffffffffffffffffffffffffffffffffffff168152505050610db3565b5f73ffffffffffffffffffffffffffffffffffffffff168273ffffffffffffffffffffffffffffffffffffffff16036103fb575f6040517fec442f050000000000000000000000000000000000000000000000000000000081526004016103f29190610cdd565b60405180910390fd5b61040c5f838361041060201b60201c565b5050565b5f73ffffffffffffffffffffffffffffffffffffffff168373ffffffffffffffffffffffffffffffffffffffff1603610460578060025f8282546104549190610d23565b9250508190555061052e565b5f805f8573ffffffffffffffffffffffffffffffffffffffff1673ffffffffffffffffffffffffffffffffffffffff1681526020019081526020015f20549050818110156104e9578381836040517fe450d38c0000000000000000000000000000000000000000000000000000000081526004016104e093929190610d65565b60405180910390fd5b8181035f808673ffffffffffffffffffffffffffffffffffffffff1673ffffffffffffffffffffffffffffffffffffffff1681526020019081526020015f2081905550505b5f73ffffffffffffffffffffffffffffffffffffffff168273ffffffffffffffffffffffffffffffffffffffff1603610575578060025f82825403925050819055506105bf565b805f808473ffffffffffffffffffffffffffffffffffffffff1673ffffffffffffffffffffffffffffffffffffffff1681526020019081526020015f205f82825401925050819055505b8173ffffffffffffffffffffffffffffffffffffffff168373ffffffffffffffffffffffffffffffffffffffff167fddf252ad1be2c89b69c2b068fc378daa952ba7f163c4a11628f55a4df523b3ef8360405161061c9190610d9a565b60405180910390a3505050565b5f604051905090565b5f80fd5b5f80fd5b5f80fd5b5f601f19601f8301169050919050565b7f4e487b71000000000000000000000000000000000000000000000000000000005f52604160045260245ffd5b6106848261063e565b810181811067ffffffffffffffff821117156106a3576106a261064e565b5b80604052505050565b5f6106b5610629565b90506106c1828261067b565b919050565b5f80fd5b5f80fd5b5f80fd5b5f67ffffffffffffffff8211156106ec576106eb61064e565b5b6106f58261063e565b9050602081019050919050565b8281835e5f83830152505050565b5f61072261071d846106d2565b6106ac565b90508281526020810184848401111561073e5761073d6106ce565b5b610749848285610702565b509392505050565b5f82601f830112610765576107646106ca565b5b8151610775848260208601610710565b91505092915050565b5f73ffffffffffffffffffffffffffffffffffffffff82169050919050565b5f6107a78261077e565b9050919050565b6107b78161079d565b81146107c1575f80fd5b50565b5f815190506107d2816107ae565b92915050565b5f819050919050565b6107ea816107d8565b81146107f4575f80fd5b50565b5f81519050610805816107e1565b92915050565b5f61018082840312156108215761082061063a565b5b61082c6101806106ac565b90505f82015167ffffffffffffffff81111561084b5761084a6106c6565b5b61085784828501610751565b5f83015250602082015167ffffffffffffffff81111561087a576108796106c6565b5b61088684828501610751565b602083015250604061089a848285016107c4565b60408301525060606108ae848285016107f7565b60608301525060806108c2848285016107f7565b60808301525060a06108d6848285016107f7565b60a08301525060c06108ea848285016107f7565b60c08301525060e06108fe848285016107f7565b60e083015250610100610913848285016107f7565b61010083015250610120610929848285016107f7565b6101208301525061014061093f848285016107f7565b61014083015250610160610955848285016107c4565b6101608301525092915050565b5f6020828403121561097757610976610632565b5b5f82015167ffffffffffffffff81111561099457610993610636565b5b6109a08482850161080b565b91505092915050565b5f81519050919050565b7f4e487b71000000000000000000000000000000000000000000000000000000005f52602260045260245ffd5b5f60028204905060018216806109f757607f821691505b602082108103610a0a57610a096109b3565b5b50919050565b5f819050815f5260205f209050919050565b5f6020601f8301049050919050565b5f82821b905092915050565b5f60088302610a6c7fffffffffffffffffffffffffffffffffffffffffffffffffffffffffffffffff82610a31565b610a768683610a31565b95508019841693508086168417925050509392505050565b5f819050919050565b5f610ab1610aac610aa7846107d8565b610a8e565b6107d8565b9050919050565b5f819050919050565b610aca83610a97565b610ade610ad682610ab8565b848454610a3d565b825550505050565b5f90565b610af2610ae6565b610afd818484610ac1565b505050565b5b81811015610b2057610b155f82610aea565b600181019050610b03565b5050565b601f821115610b6557610b3681610a10565b610b3f84610a22565b81016020851015610b4e578190505b610b62610b5a85610a22565b830182610b02565b50505b505050565b5f82821c905092915050565b5f610b855f1984600802610b6a565b1980831691505092915050565b5f610b9d8383610b76565b9150826002028217905092915050565b610bb6826109a9565b67ffffffffffffffff811115610bcf57610bce61064e565b5b610bd982546109e0565b610be4828285610b24565b5f60209050601f831160018114610c15575f8415610c03578287015190505b610c0d8582610b92565b865550610c74565b601f198416610c2386610a10565b5f5b82811015610c4a57848901518255600182019150602085019450602081019050610c25565b86831015610c675784890151610c63601f891682610b76565b8355505b6001600288020188555050505b505050505050565b5f60208284031215610c9157610c90610632565b5b5f610c9e848285016107c4565b91505092915050565b610cb08161079d565b82525050565b5f604082019050610cc95f830185610ca7565b610cd66020830184610ca7565b9392505050565b5f602082019050610cf05f830184610ca7565b92915050565b7f4e487b71000000000000000000000000000000000000000000000000000000005f52601160045260245ffd5b5f610d2d826107d8565b9150610d38836107d8565b9250828201905080821115610d5057610d4f610cf6565b5b92915050565b610d5f816107d8565b82525050565b5f606082019050610d785f830186610ca7565b610d856020830185610d56565b610d926040830184610d56565b949350505050565b5f602082019050610dad5f830184610d56565b92915050565b60805160a05161250e610e055f395f818161092001528181610dcd01528181611127015261114c01525f818161080d01528181610cf601528181610dab015281816110410152611407015261250e5ff3fe608060405260043610610203575f3560e01c80638fd3ab8011610117578063c6d8b7781161009f578063eb13a7d21161006e578063eb13a7d214610739578063eb91d37e14610763578063fd62bcd71461078d578063fd967f47146107b7578063fe94c269146107e157610203565b8063c6d8b7781461066d578063dd62ed3e14610697578063e4849b32146106d3578063e86acaf71461070f57610203565b8063a8aa1b31116100e6578063a8aa1b3114610589578063a9059cbb146105b3578063b2a39d09146105ef578063be74615f14610619578063c45a01551461064357610203565b80638fd3ab8014610501578063939c44561461051757806395d89b4114610541578063a6f2ae3a1461056b57610203565b806326232a2e1161019a5780634bad9510116101695780634bad95101461041f5780636d04eb9f1461044957806370a082311461047357806379cc6790146104af5780638f3e4b0f146104d757610203565b806326232a2e14610379578063313ce567146103a357806342966c68146103cd57806346dcab55146103f557610203565b806312e2a1b2116101d657806312e2a1b2146102c157806318160ddd146102eb57806323b872dd1461031557806324b76fd51461035157610203565b806302d05d3f1461020757806306fdde0314610231578063095ea7b31461025b5780630f4f022914610297575b5f80fd5b348015610212575f80fd5b5061021b61080b565b6040516102289190611c9d565b60405180910390f35b34801561023c575f80fd5b5061024561082f565b6040516102529190611d26565b60405180910390f35b348015610266575f80fd5b50610281600480360381019061027c9190611db4565b6108bf565b60405161028e9190611e0c565b60405180910390f35b3480156102a2575f80fd5b506102ab6108e1565b6040516102b89190611e34565b60405180910390f35b3480156102cc575f80fd5b506102d561090e565b6040516102e29190611e34565b60405180910390f35b3480156102f6575f80fd5b506102ff610914565b60405161030c9190611e34565b60405180910390f35b348015610320575f80fd5b5061033b60048036038101906103369190611e4d565b61091d565b6040516103489190611e0c565b60405180910390f35b34801561035c575f80fd5b5061037760048036038101906103729190611fc9565b6109d0565b005b348015610384575f80fd5b5061038d610aa3565b60405161039a9190611e34565b60405180910390f35b3480156103ae575f80fd5b506103b7610aa9565b6040516103c4919061203e565b60405180910390f35b3480156103d8575f80fd5b506103f360048036038101906103ee9190612057565b610ab1565b005b348015610400575f80fd5b50610409610ac5565b6040516104169190611e34565b60405180910390f35b34801561042a575f80fd5b50610433610acb565b6040516104409190611e34565b60405180910390f35b348015610454575f80fd5b5061045d610ad1565b60405161046a9190611e34565b60405180910390f35b34801561047e575f80fd5b5061049960048036038101906104949190612082565b610ad7565b6040516104a69190611e34565b60405180910390f35b3480156104ba575f80fd5b506104d560048036038101906104d09190611db4565b610b1c565b005b3480156104e2575f80fd5b506104eb610b3c565b6040516104f89190611e34565b60405180910390f35b34801561050c575f80fd5b50610515610b42565b005b348015610522575f80fd5b5061052b610e07565b6040516105389190611e34565b60405180910390f35b34801561054c575f80fd5b50610555610e6a565b6040516105629190611d26565b60405180910390f35b610573610efa565b6040516105809190611e34565b60405180910390f35b348015610594575f80fd5b5061059d611125565b6040516105aa9190611c9d565b60405180910390f35b3480156105be575f80fd5b506105d960048036038101906105d49190611db4565b611149565b6040516105e69190611e0c565b60405180910390f35b3480156105fa575f80fd5b506106036111fa565b6040516106109190611e34565b60405180910390f35b348015610624575f80fd5b5061062d611200565b60405161063a9190611e34565b60405180910390f35b34801561064e575f80fd5b50610657611206565b60405161066491906120cd565b60405180910390f35b348015610678575f80fd5b5061068161122b565b60405161068e9190611e0c565b60405180910390f35b3480156106a2575f80fd5b506106bd60048036038101906106b891906120e6565b61123e565b6040516106ca9190611e34565b60405180910390f35b3480156106de575f80fd5b506106f960048036038101906106f49190612057565b6112c0565b6040516107069190611e34565b60405180910390f35b34801561071a575f80fd5b50610723611484565b6040516107309190611e34565b60405180910390f35b348015610744575f80fd5b5061074d61148a565b60405161075a9190611e34565b60405180910390f35b34801561076e575f80fd5b50610777611490565b6040516107849190611e34565b60405180910390f35b348015610798575f80fd5b506107a16114a6565b6040516107ae9190611e0c565b60405180910390f35b3480156107c2575f80fd5b506107cb6114b9565b6040516107d89190611e34565b60405180910390f35b3480156107ec575f80fd5b506107f56114bf565b6040516108029190611e34565b60405180910390f35b7f000000000000000000000000000000000000000000000000000000000000000081565b60606003805461083e90612151565b80601f016020809104026020016040519081016040528092919081815260200182805461086a90612151565b80156108b55780601f1061088c576101008083540402835291602001916108b5565b820191905f5260205f20905b81548152906001019060200180831161089857829003601f168201915b5050505050905090565b5f806108c96114c5565b90506108d68185856114cc565b600191505092915050565b5f806006546108ee610914565b6007546108fb91906121ae565b610905919061221c565b90508091505090565b600c5481565b5f600254905090565b5f7f000000000000000000000000000000000000000000000000000000000000000073ffffffffffffffffffffffffffffffffffffffff168373ffffffffffffffffffffffffffffffffffffffff161480156109855750601260159054906101000a900460ff165b156109bc576040517f72a9c12900000000000000000000000000000000000000000000000000000000815260040160405180910390fd5b6109c78484846114de565b90509392505050565b6109d861150c565b5f8203610a11576040517f1f2a200500000000000000000000000000000000000000000000000000000000815260040160405180910390fd5b81610a1b33610ad7565b1015610a53576040517ff4d678b800000000000000000000000000000000000000000000000000000000815260040160405180910390fd5b610a5c82610ab1565b7f41fb1eaf5f1af93589a302d435ea238839cfe1f3a3792fd4f233b07f1c7af200338383604051610a8f9392919061224c565b60405180910390a1610a9f611552565b5050565b600b5481565b5f6012905090565b610ac2610abc6114c5565b8261155c565b50565b60105481565b60065481565b600d5481565b5f805f8373ffffffffffffffffffffffffffffffffffffffff1673ffffffffffffffffffffffffffffffffffffffff1681526020019081526020015f20549050919050565b610b2e82610b286114c5565b836115db565b610b38828261155c565b5050565b600a5481565b601260149054906101000a900460ff16610b88576040517f19eb523f00000000000000000000000000000000000000000000000000000000815260040160405180910390fd5b5f601260156101000a81548160ff0219169083151502179055505f610bac30610ad7565b90503073ffffffffffffffffffffffffffffffffffffffff1663095ea7b360125f9054906101000a900473ffffffffffffffffffffffffffffffffffffffff16836040518363ffffffff1660e01b8152600401610c0a929190612288565b6020604051808303815f875af1158015610c26573d5f803e3d5ffd5b505050506040513d601f19601f82011682018060405250810190610c4a91906122d9565b505f601154601054600a54600754610c629190612304565b610c6c9190612304565b610c769190612304565b9050610cb260085f9054906101000a900473ffffffffffffffffffffffffffffffffffffffff16601154601054610cad9190612337565b61166e565b60125f9054906101000a900473ffffffffffffffffffffffffffffffffffffffff1673ffffffffffffffffffffffffffffffffffffffff1663f305d71982308586867f000000000000000000000000000000000000000000000000000000000000000061012c42610d239190612337565b6040518863ffffffff1660e01b8152600401610d449695949392919061236a565b60606040518083038185885af1158015610d60573d5f803e3d5ffd5b50505050506040513d601f19601f82011682018060405250810190610d8591906123dd565b5050507fb937c7d5690dfbd53f3a261f8d88d4317a60657f44ce245b14bdea619ec0a1f67f0000000000000000000000000000000000000000000000000000000000000000307f0000000000000000000000000000000000000000000000000000000000000000604051610dfb9392919061242d565b60405180910390a15050565b5f80610e1230610ad7565b600954610e1f9190612304565b90505f600f5461271083610e3391906121ae565b610e3d919061221c565b90506064811015610e515760649050610e62565b612710811115610e615761271090505b5b809250505090565b606060048054610e7990612151565b80601f0160208091040260200160405190810160405280929190818152602001828054610ea590612151565b8015610ef05780601f10610ec757610100808354040283529160200191610ef0565b820191905f5260205f20905b815481529060010190602001808311610ed357829003601f168201915b5050505050905090565b5f601260149054906101000a900460ff1615610f42576040517f162aacb400000000000000000000000000000000000000000000000000000000815260040160405180910390fd5b610f4a61150c565b5f3403610f83576040517f1f2a200500000000000000000000000000000000000000000000000000000000815260040160405180910390fd5b5f610f8d34611712565b90505f8134610f9c9190612304565b90505f81600754610fad9190612337565b82600654610fbb91906121ae565b610fc5919061221c565b90508060065f828254610fd89190612304565b925050819055508160075f828254610ff09190612337565b92505081905550611002303383611735565b5f8061100d85611825565b9150915061103c60085f9054906101000a900473ffffffffffffffffffffffffffffffffffffffff168361166e565b6110667f00000000000000000000000000000000000000000000000000000000000000008261166e565b61106e6108e1565b600c81905550600d54600c54111561109c576001601260146101000a81548160ff0219169083151502179055505b600e54600c54106110d9576040517f53dfa97500000000000000000000000000000000000000000000000000000000815260040160405180910390fd5b7f745f661b8143944fb883f50694ebed3a871e43c451d9d4bf4648a9d551d7e47a338460405161110a929190612288565b60405180910390a18295505050505050611122611552565b90565b7f000000000000000000000000000000000000000000000000000000000000000081565b5f7f000000000000000000000000000000000000000000000000000000000000000073ffffffffffffffffffffffffffffffffffffffff168373ffffffffffffffffffffffffffffffffffffffff161480156111b15750601260159054906101000a900460ff165b156111e8576040517f72a9c12900000000000000000000000000000000000000000000000000000000815260040160405180910390fd5b6111f28383611854565b905092915050565b60075481565b60115481565b60085f9054906101000a900473ffffffffffffffffffffffffffffffffffffffff1681565b601260159054906101000a900460ff1681565b5f60015f8473ffffffffffffffffffffffffffffffffffffffff1673ffffffffffffffffffffffffffffffffffffffff1681526020019081526020015f205f8373ffffffffffffffffffffffffffffffffffffffff1673ffffffffffffffffffffffffffffffffffffffff1681526020019081526020015f2054905092915050565b5f601260149054906101000a900460ff1615611308576040517f162aacb400000000000000000000000000000000000000000000000000000000815260040160405180910390fd5b61131061150c565b5f8203611349576040517f1f2a200500000000000000000000000000000000000000000000000000000000815260040160405180910390fd5b611354333084611735565b5f826006546113639190612337565b8360075461137191906121ae565b61137b919061221c565b90505f61138782611712565b90505f81836113969190612304565b90508460065f8282546113a99190612337565b925050819055508260075f8282546113c19190612304565b925050819055505f806113d384611825565b9150915061140260085f9054906101000a900473ffffffffffffffffffffffffffffffffffffffff168361166e565b61142c7f00000000000000000000000000000000000000000000000000000000000000008261166e565b611436338461166e565b7f57d61f3ccd4ccd25ec5d234d6049553a586fac134c85c98d0b0d9d5724f4e43e3384604051611467929190612288565b60405180910390a1829550505050505061147f611552565b919050565b600e5481565b60095481565b5f6006546007546114a1919061221c565b905090565b601260149054906101000a900460ff1681565b61271081565b600f5481565b5f33905090565b6114d98383836001611876565b505050565b5f806114e86114c5565b90506114f58582856115db565b611500858585611735565b60019150509392505050565b600260055403611548576040517f3ee5aeb500000000000000000000000000000000000000000000000000000000815260040160405180910390fd5b6002600581905550565b6001600581905550565b5f73ffffffffffffffffffffffffffffffffffffffff168273ffffffffffffffffffffffffffffffffffffffff16036115cc575f6040517f96c6fd1e0000000000000000000000000000000000000000000000000000000081526004016115c39190611c9d565b60405180910390fd5b6115d7825f83611a45565b5050565b5f6115e6848461123e565b90507fffffffffffffffffffffffffffffffffffffffffffffffffffffffffffffffff8110156116685781811015611659578281836040517ffb8f41b200000000000000000000000000000000000000000000000000000000815260040161165093929190612462565b60405180910390fd5b61166784848484035f611876565b5b50505050565b5f8273ffffffffffffffffffffffffffffffffffffffff1682604051611693906124c4565b5f6040518083038185875af1925050503d805f81146116cd576040519150601f19603f3d011682016040523d82523d5f602084013e6116d2565b606091505b505090508061170d576040517f90b8ec1800000000000000000000000000000000000000000000000000000000815260040160405180910390fd5b505050565b5f612710600b548361172491906121ae565b61172e919061221c565b9050919050565b5f73ffffffffffffffffffffffffffffffffffffffff168373ffffffffffffffffffffffffffffffffffffffff16036117a5575f6040517f96c6fd1e00000000000000000000000000000000000000000000000000000000815260040161179c9190611c9d565b60405180910390fd5b5f73ffffffffffffffffffffffffffffffffffffffff168273ffffffffffffffffffffffffffffffffffffffff1603611815575f6040517fec442f0500000000000000000000000000000000000000000000000000000000815260040161180c9190611c9d565b60405180910390fd5b611820838383611a45565b505050565b5f805f600284611835919061221c565b90505f600285611845919061221c565b90508181935093505050915091565b5f8061185e6114c5565b905061186b818585611735565b600191505092915050565b5f73ffffffffffffffffffffffffffffffffffffffff168473ffffffffffffffffffffffffffffffffffffffff16036118e6575f6040517fe602df050000000000000000000000000000000000000000000000000000000081526004016118dd9190611c9d565b60405180910390fd5b5f73ffffffffffffffffffffffffffffffffffffffff168373ffffffffffffffffffffffffffffffffffffffff1603611956575f6040517f94280d6200000000000000000000000000000000000000000000000000000000815260040161194d9190611c9d565b60405180910390fd5b8160015f8673ffffffffffffffffffffffffffffffffffffffff1673ffffffffffffffffffffffffffffffffffffffff1681526020019081526020015f205f8573ffffffffffffffffffffffffffffffffffffffff1673ffffffffffffffffffffffffffffffffffffffff1681526020019081526020015f20819055508015611a3f578273ffffffffffffffffffffffffffffffffffffffff168473ffffffffffffffffffffffffffffffffffffffff167f8c5be1e5ebec7d5bd14f71427d1e84f3dd0314c0f7b2291e5b200ac8c7c3b92584604051611a369190611e34565b60405180910390a35b50505050565b5f73ffffffffffffffffffffffffffffffffffffffff168373ffffffffffffffffffffffffffffffffffffffff1603611a95578060025f828254611a899190612337565b92505081905550611b63565b5f805f8573ffffffffffffffffffffffffffffffffffffffff1673ffffffffffffffffffffffffffffffffffffffff1681526020019081526020015f2054905081811015611b1e578381836040517fe450d38c000000000000000000000000000000000000000000000000000000008152600401611b1593929190612462565b60405180910390fd5b8181035f808673ffffffffffffffffffffffffffffffffffffffff1673ffffffffffffffffffffffffffffffffffffffff1681526020019081526020015f2081905550505b5f73ffffffffffffffffffffffffffffffffffffffff168273ffffffffffffffffffffffffffffffffffffffff1603611baa578060025f8282540392505081905550611bf4565b805f808473ffffffffffffffffffffffffffffffffffffffff1673ffffffffffffffffffffffffffffffffffffffff1681526020019081526020015f205f82825401925050819055505b8173ffffffffffffffffffffffffffffffffffffffff168373ffffffffffffffffffffffffffffffffffffffff167fddf252ad1be2c89b69c2b068fc378daa952ba7f163c4a11628f55a4df523b3ef83604051611c519190611e34565b60405180910390a3505050565b5f73ffffffffffffffffffffffffffffffffffffffff82169050919050565b5f611c8782611c5e565b9050919050565b611c9781611c7d565b82525050565b5f602082019050611cb05f830184611c8e565b92915050565b5f81519050919050565b5f82825260208201905092915050565b8281835e5f83830152505050565b5f601f19601f8301169050919050565b5f611cf882611cb6565b611d028185611cc0565b9350611d12818560208601611cd0565b611d1b81611cde565b840191505092915050565b5f6020820190508181035f830152611d3e8184611cee565b905092915050565b5f604051905090565b5f80fd5b5f80fd5b611d6081611c7d565b8114611d6a575f80fd5b50565b5f81359050611d7b81611d57565b92915050565b5f819050919050565b611d9381611d81565b8114611d9d575f80fd5b50565b5f81359050611dae81611d8a565b92915050565b5f8060408385031215611dca57611dc9611d4f565b5b5f611dd785828601611d6d565b9250506020611de885828601611da0565b9150509250929050565b5f8115159050919050565b611e0681611df2565b82525050565b5f602082019050611e1f5f830184611dfd565b92915050565b611e2e81611d81565b82525050565b5f602082019050611e475f830184611e25565b92915050565b5f805f60608486031215611e6457611e63611d4f565b5b5f611e7186828701611d6d565b9350506020611e8286828701611d6d565b9250506040611e9386828701611da0565b9150509250925092565b5f80fd5b5f80fd5b7f4e487b71000000000000000000000000000000000000000000000000000000005f52604160045260245ffd5b611edb82611cde565b810181811067ffffffffffffffff82111715611efa57611ef9611ea5565b5b80604052505050565b5f611f0c611d46565b9050611f188282611ed2565b919050565b5f67ffffffffffffffff821115611f3757611f36611ea5565b5b611f4082611cde565b9050602081019050919050565b828183375f83830152505050565b5f611f6d611f6884611f1d565b611f03565b905082815260208101848484011115611f8957611f88611ea1565b5b611f94848285611f4d565b509392505050565b5f82601f830112611fb057611faf611e9d565b5b8135611fc0848260208601611f5b565b91505092915050565b5f8060408385031215611fdf57611fde611d4f565b5b5f611fec85828601611da0565b925050602083013567ffffffffffffffff81111561200d5761200c611d53565b5b61201985828601611f9c565b9150509250929050565b5f60ff82169050919050565b61203881612023565b82525050565b5f6020820190506120515f83018461202f565b92915050565b5f6020828403121561206c5761206b611d4f565b5b5f61207984828501611da0565b91505092915050565b5f6020828403121561209757612096611d4f565b5b5f6120a484828501611d6d565b91505092915050565b5f6120b782611c5e565b9050919050565b6120c7816120ad565b82525050565b5f6020820190506120e05f8301846120be565b92915050565b5f80604083850312156120fc576120fb611d4f565b5b5f61210985828601611d6d565b925050602061211a85828601611d6d565b9150509250929050565b7f4e487b71000000000000000000000000000000000000000000000000000000005f52602260045260245ffd5b5f600282049050600182168061216857607f821691505b60208210810361217b5761217a612124565b5b50919050565b7f4e487b71000000000000000000000000000000000000000000000000000000005f52601160045260245ffd5b5f6121b882611d81565b91506121c383611d81565b92508282026121d181611d81565b915082820484148315176121e8576121e7612181565b5b5092915050565b7f4e487b71000000000000000000000000000000000000000000000000000000005f52601260045260245ffd5b5f61222682611d81565b915061223183611d81565b925082612241576122406121ef565b5b828204905092915050565b5f60608201905061225f5f830186611c8e565b61226c6020830185611e25565b818103604083015261227e8184611cee565b9050949350505050565b5f60408201905061229b5f830185611c8e565b6122a86020830184611e25565b9392505050565b6122b881611df2565b81146122c2575f80fd5b50565b5f815190506122d3816122af565b92915050565b5f602082840312156122ee576122ed611d4f565b5b5f6122fb848285016122c5565b91505092915050565b5f61230e82611d81565b915061231983611d81565b925082820390508181111561233157612330612181565b5b92915050565b5f61234182611d81565b915061234c83611d81565b925082820190508082111561236457612363612181565b5b92915050565b5f60c08201905061237d5f830189611c8e565b61238a6020830188611e25565b6123976040830187611e25565b6123a46060830186611e25565b6123b16080830185611c8e565b6123be60a0830184611e25565b979650505050505050565b5f815190506123d781611d8a565b92915050565b5f805f606084860312156123f4576123f3611d4f565b5b5f612401868287016123c9565b9350506020612412868287016123c9565b9250506040612423868287016123c9565b9150509250925092565b5f6060820190506124405f830186611c8e565b61244d6020830185611c8e565b61245a6040830184611c8e565b949350505050565b5f6060820190506124755f830186611c8e565b6124826020830185611e25565b61248f6040830184611e25565b949350505050565b5f81905092915050565b50565b5f6124af5f83612497565b91506124ba826124a1565b5f82019050919050565b5f6124ce826124a4565b915081905091905056fea2646970667358221220523fcf0ee3b53ae37ee9800870f2fa453600aac5ecebd6654ee4cffe1ca7126a64736f6c634300081a0033",
        "linkReferences": {}
    },
    "methodIdentifiers": {
        "MAX_BPS()": "fd967f47",
        "allowance(address,address)": "dd62ed3e",
        "approve(address,uint256)": "095ea7b3",
        "balanceOf(address)": "70a08231",
        "burn(uint256)": "42966c68",
        "burnFrom(address,uint256)": "79cc6790",
        "buy()": "a6f2ae3a",
        "creator()": "02d05d3f",
        "currentMarketcap()": "12e2a1b2",
        "decimals()": "313ce567",
        "factory()": "c45a0155",
        "getCurrentPrice()": "eb91d37e",
        "getMarketcap()": "0f4f0229",
        "getProgress()": "939c4456",
        "initialEtherReserve()": "8f3e4b0f",
        "initialTokenSupply()": "eb13a7d2",
        "mcHigherLimit()": "e86acaf7",
        "mcLowerLimit()": "6d04eb9f",
        "migrate()": "8fd3ab80",
        "migrationFee()": "46dcab55",
        "name()": "06fdde03",
        "pair()": "a8aa1b31",
        "platformFee()": "26232a2e",
        "poolCreationFee()": "be74615f",
        "redeem(uint256,string)": "24b76fd5",
        "sell(uint256)": "e4849b32",
        "sendingToPairNotAllowed()": "c6d8b778",
        "symbol()": "95d89b41",
        "tokenReserves()": "4bad9510",
        "tokensMigrationThreshold()": "fe94c269",
        "totalSupply()": "18160ddd",
        "tradingStopped()": "fd62bcd7",
        "transfer(address,uint256)": "a9059cbb",
        "transferFrom(address,address,uint256)": "23b872dd",
        "virtualEthReserves()": "b2a39d09"
    },
    "id": 27
}